:020000022000DC
:1070000000000420197202000172020003720200E3
:1070100005720200077202000972020000000000FF
:107020000000000000000000000000000B720200E1
:107030000D720200000000000F72020011720200C7
:1070400013720200137202006D7C0300DD7B0300EB
:10705000017C03001372020013720200137202001B
:107060001372020013720200137202001372020004
:1070700013720200137202001372020013720200F4
:1070800013720200FDE0020013720200497C03004B
:107090001372020013720200296D030013720200C2
:1070A00013720200137202001372020013720200C4
:1070B00013720200137202000000000000000000C2
:1070C000137202001372020013720200257C030087
:1070D0001372020013720200137202001372020094
:1070E000137202001372020013720200000000000B
:1070F0000000000013720200000000001372020082
:10710000000000000000000000000000000000007F
:10711000000000000000000000000000000000006F
:10712000000000000000000000000000000000005F
:10713000000000000000000000000000000000004F
:10714000000000000000000000000000000000003F
:10715000000000000000000000000000000000002F
:10716000000000000000000000000000000000001F
:10717000000000000000000000000000000000000F
:1071800000000000000000000000000000000000FF
:1071900000000000000000000000000000000000EF
:1071A00000000000000000000000000000000000DF
:1071B00000000000000000000000000000000000CF
:1071C00000000000000000000000000000000000BF
:1071D00000000000000000000000000000000000AF
:1071E000000000000000000000000000000000009F
:1071F000000000000000000000000000000000008F
:10720000FEE7FEE7FEE7FEE7FEE7FEE7FEE7FEE756
:10721000FEE7FEE700F002B8FFF7FCBF0F484FF0B3
:107220000701884385460E4880470E48016841F4AF
:1072300070010160BFF34F8FBFF36F8F00F01AB87A
:1072400009480A490A4A884207D0521A05D00378E9
:1072500001300B700131013AF9D170470000042070
:1072600005AF020088ED00E0C49803006022002012
:107270003823002039493A480A1A02D0072291439C
:107280008D46384938480A1A06D00722914381F3BF
:107290000988022282F3148834483549354A00F0BF
:1072A0003EF835483549364A00F039F83548364910
:1072B000364A00F034F836483649374A00F02FF89D
:1072C00036483749374A00F02AF837483749384AAC
:1072D00000F025F837483849384A00F020F8384897
:1072E0003849002200F033F837483849002200F0CE
:1072F0002EF837483749091A11F0B0FF364A90473F
:1073000024482549884205D00268043003B49047D8
:1073100003BCF7E700200021304A9047FEE788428F
:1073200014D0521A12D003460B43134303242342B2
:1073300006D1036804300B600431043AF9D1704778
:10734000037801300B700131013AF9D1704788425E
:1073500002D002700130FAE77047000000000420FC
:1073600000C0032000000420000004209CD0030083
:107370003823002078240020E0730200E07302002C
:107380005E9703009CD003003823002038230020A0
:107390009C9903009C9903009C9903009C9903000D
:1073A0009C9903009C9903009C9903009C990300FD
:1073B00099D00300DCD10300782400207824002039
:1073C00078240020346F0020346F0020386F0020B4
:1073D000386F0020387100204172020079A9020044
:1073E00082B003468DF807309DF90730002B13DB80
:1073F0009DF8073003F01F0209499DF907305B092A
:10740000012000FA02F2203341F82320BFF34F8F0E
:1074100000BFBFF36F8F00BF00BF02B0704700BF57
:1074200000E100E082B003468DF807309DF9073097
:10743000002B0DDB9DF8073003F01F0206499DF974
:1074400007305B09012000FA02F2603341F8232083
:1074500000BF02B0704700BF00E100E042DF7047AC
:1074600000BF184643DF704700BF184644DF70472F
:1074700000BF184641DF704700BF184600B585B011
:107480000190019B002B0AD0074B43F001030393AB
:10749000019B9B010293039B0298984700E000BF69
:1074A00005B05DF804FB00BFD0A6030000B583B0B3
:1074B0000190019B1B68184600F0E5F80346002B7D
:1074C00004D10B494FF4F67008F0B5FC019B1B6822
:1074D0001F2B02D84FF0A04306E0019B1B6803F06E
:1074E0001F02019B1A60034B184603B05DF804FBB2
:1074F0009C9903000003005000B585B00190084638
:1075000011461A4603468DF803300B468DF80230BB
:1075100013468DF8013001AB1846FFF7C7FF039003
:107520009DF803209DF802305B001A439DF801305E
:107530009B001A439DF818301B0242EA03019DF894
:107540001C301B04019A1943039B02F5E07243F8B7
:10755000221000BF05B05DF804FB00B585B00390B4
:1075600000230193002300930023012201210398AB
:10757000FFF7C2FF00BF05B05DF804FB00B585B0A2
:1075800003900B468DF80B309DF80B3000220192D2
:1075900000220092002200210398FFF7ADFF00BFF8
:1075A00005B05DF804FB00B585B0019001AB18464D
:1075B000FFF77CFF0390019B012202FA03F31946B7
:1075C000039800F04CF800BF05B05DF804FB00B56F
:1075D00085B0019001AB1846FFF768FF0390019B4F
:1075E000012202FA03F31946039800F042F800BFA3
:1075F00005B05DF804FB00B585B0019001AB1846FD
:10760000FFF754FF0390039BD3F804350293029BCA
:10761000DA43019B012101FA03F31A40039BC3F8EB
:107620000825019B01229A40029B1A40039BC3F844
:107630000C2500BF05B05DF804FB00B583B00190D8
:107640000091009B002B03D10198FFF7C0FF02E0DF
:107650000198FFF7A8FF00BF03B05DF804FB82B0FC
:1076600001900091019B009AC3F8082500BF02B069
:10767000704782B001900091019B009AC3F80C25DD
:1076800000BF02B0704784B00190019B5B09029378
:1076900000230393029B002B03D0029B012B04D0F9
:1076A00007E04FF0FF33039303E04FF6FF730393BC
:1076B00000BF019B03F01F030193039A019B22FA71
:1076C00003F303F00103DBB2184604B0704700B5C2
:1076D00083B00190019B002B0AD04FF47A70FFF722
:1076E000CDFE019B013B0193019B002BF5D100E0F6
:1076F00000BF03B05DF804FB6DDF704700BF1846A4
:1077000074DF704700BF184677DF704700BF184628
:107710007ADF704700BF18467CDF704700BF18460D
:1077200000B583B00D4900200FF0CEFE1220FFF708
:1077300014FF0023019308E01220FFF75CFF96205E
:10774000FFF7C5FF019B01330193019B052BF3DD7F
:1077500000BF00BF03B05DF804FB00BFCC9903007D
:1077600008B503F093FEFFF785FE00BF08BD00B526
:1077700087B003900B460192ADF80A30019811F0E2
:10778000A6FD0590BDF80A30059A9A4209D8059AD7
:107790000199039811F0CAFD0346002B01D1012382
:1077A00000E0002303F00103DBB2184607B05DF8E8
:1077B00004FB00B583B00190009108E0019B1B68B9
:1077C000002B01D0012308E00120FFF757FE009BAA
:1077D0005A1E0092002BF1D10023184603B05DF829
:1077E00004FB000000B585B004F0B0FA03904FF43C
:1077F000C043029316E003F049FE0DF0C1FE0BF00A
:10780000F1FD04F0A3FA01900399019804F092FAB3
:107810000246029B934205D2094900200FF054FE14
:107820000D2309E0074B1B78DBB283F00103DBB2C9
:10783000002BE0D1044B1B68184605B05DF804FB33
:10784000FC990300604B0020644B002082B0019043
:10785000019B03F00303002B0CD1019A114B83FB16
:1078600002135911D317CB1A642101FB03F3D31A66
:10787000002B0DD1019A0B4B83FB0213D911D317A7
:10788000CB1A4FF4C87101FB03F3D31A002B01D1BB
:10789000012300E0002303F00103DBB2184602B02D
:1078A000704700BF1F85EB5110B582B00190009169
:1078B000009B022B08D1084B5B781C460198FFF710
:1078C000C5FF0346234403E0009B013B024AD35C0F
:1078D000184602B010BD00BFD8A6030000B583B0A3
:1078E000274B9B680133264A9360254B9B683B2BB3
:1078F00007DD234B00229A60214B5B680133204A4D
:1079000053601F4B5B683B2B07DD1D4B00225A6009
:107910001B4B1B6801331A4A1360194B1B68172B4A
:1079200007DD174B00221A60154BDB680133144A40
:10793000D360134B5B69124A126911461846FFF770
:10794000B3FF01900E4BDB68019A9A4207DA0C4BA9
:107950000122DA600A4B1B690133094A1361084BA3
:107960001B690C2B07DD064B01221A61044B5B6976
:107970000133034A536100BF03B05DF804FB00BF4D
:107980006C4B002000B583B001900091019B022B4D
:1079900002D0019B032B04D1019A0449002010F06E
:1079A00005F900BF03B05DF804FB00BF109A0300A7
:1079B00082B0019002E0019B01330193019B002BF7
:1079C0000FD0019B1B78202BF5D0019B1B78092B36
:1079D000F1D0019B1B780D2BEDD0019B1B780A2B5E
:1079E000E9D0019B184602B0704700B585B0019000
:1079F0000091019B002B03D0019B1B78002B01D130
:107A0000002310E002AB0A221946019810F070FD25
:107A10000390029B019A9A4201D1002303E0009B4C
:107A2000039A1A600123184605B05DF804FB0000B4
:107A300000B585B0019000910023039300230293C9
:107A400002AB03AA1849019810F0D8FE0346022B96
:107A500001D0002323E0039B002B08DB039B172BA3
:107A600005DC029B002B02DB029B3B2B01DD00238C
:107A700015E0039B9BB21A461201D31A1A46120153
:107A8000D31A1B019AB2029B9BB219460901CB1A69
:107A90009B009BB213449AB2009B1A8001231846A4
:107AA00005B05DF804FB00BF249A030000B585B063
:107AB000019000910023039373238DF80B300DF197
:107AC0000B0303AA2449019810F098FE0346002BEB
:107AD00001DC00233CE09DF80B30732B03D09DF8B4
:107AE0000B30532B04D1039B9AB2009B1A8028E0E1
:107AF0009DF80B306D2B03D09DF80B304D2B09D129
:107B0000039B9BB21A461201D31A9B009AB2009BA8
:107B10001A8016E09DF80B30682B03D09DF80B30CF
:107B2000482B0CD1039B9BB21A461201D31A1A465A
:107B30001201D31A1B019AB2009B1A8001E00023A4
:107B400006E0009B1B88002B14BF01230023DBB23F
:107B5000184605B05DF804FB2C9A030084B0019030
:107B6000019B002B03D0019B1B78402B01D00023ED
:107B700029E0019B0133019300238DF80F3016E0BB
:107B8000019B1B78302B16D9019B1B78372B12D801
:107B9000019B1B78313B012202FA03F3DAB29DF814
:107BA0000F3013438DF80F30019B01330193019B7C
:107BB0001B78002BE4D19DF80F30002B02D09DF8EC
:107BC0000F3000E07F23184604B0704782B0019068
:107BD0000091044A019B1360034A009B136000BF9D
:107BE00002B070478C4B0020904B002000B5B1B024
:107BF00003900291019200933B21039811F06AFCDB
:107C00002E902E9B002B01D1002352E01BAB402273
:107C10000021184611F0B8FC17AB00221A605A6018
:107C20009A60DA602E9A039BD31A2D932D9B3F2BDB
:107C300001D900233DE01BAB2D9A0399184611F0A2
:107C400071FC2E9B591C17AB0F22184611F054FBE8
:107C50000023ADF85A300DF15A0217AB1146184601
:107C6000FFF724FF034683F00103DBB2002B01D0B2
:107C700000231EE01BA906AB3F22184611F03CFB77
:107C80000023059305AA06AB0C49184611F0C5FB65
:107C90002F900AE000232C9300232B9305AB1A4668
:107CA0000649002011F0B9FB2F902F9B002BF1D13A
:107CB0000123184631B05DF804FB00BF349A03007D
:107CC00000B591B0039002910192442200210298E4
:107CD00011F05AFC0398FFF76BFE099003228B49C1
:107CE000099811F023FB0346002B05D00999884819
:107CF000FFF76CFF002305E1099B0333099306ABF3
:107D000000221A605A6000230F93099B0E930AE029
:107D10000E9A531C0E930F9B591C0F9112784033EF
:107D20006B4403F8282C0E9B1B78002B0AD00E9B6B
:107D30001B782C2B06D00E9B1B78292B02D00F9B77
:107D4000062BE5DD06AA0F9B134400221A700023C0
:107D5000ADF816300DF1160206AB11461846FFF7C6
:107D600067FE034683F00103DBB2002B05D00999BF
:107D70006848FFF72BFF0023C4E00E98FFF718FEBA
:107D80000990099B1B782C2B05D009996248FFF7B5
:107D90001DFF0023B6E0099B013309930998FFF703
:107DA00007FE099000238DF83730099B1B78712B53
:107DB00003D101238DF837300DE0099B1B786C2B24
:107DC00003D100238DF8373005E009995348FFF7B8
:107DD000FDFE002396E0099B01330993099B1B7864
:107DE000282B05D009994E48FFF7F0FE002389E0C3
:107DF000099B0133099301230C93099B0893099B69
:107E00000B9311E00B9B1B78282B03D10C9B0133A8
:107E10000C9306E00B9B1B78292B02D10C9B013B9A
:107E20000C930B9B01330B930B9B1B78002B02D005
:107E30000C9B002BE6DC0C9B002B05D00B993948E2
:107E4000FFF7C4FE00235DE00B9B013B0B93002377
:107E500004939DF83730002B12D0029B191D04AB00
:107E600010220898FFF7C2FE034683F00103DBB23D
:107E7000002B05D008992C48FFF7A8FE002341E00D
:107E8000049BDAB2029BDA70BDF81620029B1A80BE
:107E90000B9B01331846FFF78BFD0A900A9B1B785A
:107EA000402B1BD10A98FFF759FE03461A46029B46
:107EB0009A700A9B01330A9302E00A9B01330A93EA
:107EC0000A9B1B78002B04D00A9B1B78303B092BA4
:107ED000F3D90A98FFF76CFD0A9002E0029B00229A
:107EE0009A700A9B1B78292B05D00A990F48FFF737
:107EF0006DFE002306E0019B002B02D0019B0A9A35
:107F00001A600123184611B05DF804FB389A03008B
:107F10003C9A0300509A03005C9A0300709A030095
:107F2000909A0300A49A0300C09A0300CC9A03001D
:107F300000B595B0039002910192924B00221A6015
:107F4000904B1B68904A13604FF48A62002101989D
:107F500011F01AFB019B01221A708C49039811F051
:107F600043FA0D908A49039811F03EFA0C90894922
:107F7000039811F039FA0B900D9B002B05D00C9B48
:107F8000002B02D00B9B002B05D103998248FFF7F1
:107F90001DFE002367E1002308930D9B033308AA0D
:107FA00011461846FFF721FD034683F00103DBB2BB
:107FB000002B05D1089B002B02DB089BFF2B07DD64
:107FC0000D9B033319467548FFF700FE00234AE175
:107FD000089BDAB2029B1A70089BDAB2019B5A70B6
:107FE000002307930C9B023307AA11461846FFF79C
:107FF000FCFC034683F00103DBB2002B05D1079B99
:10800000002B02DD079B032B07DD0C9B0233194677
:108010006348FFF7DBFD002325E1079BDAB2019BF4
:108020009A706049039811F0DFF90A900A9B002BBF
:1080300017D0002306930A9B033306AA114618465D
:10804000FFF7D3FC0346002B0BD0069B002B08DD6B
:10805000069B40F64162934203DC069B9AB2019B69
:108060009A8028210B9811F035FA0990099B002B72
:1080700005D10B994748FFF7A9FD0023F3E0099BC1
:108080000133099301231393099B12930023119346
:1080900018E0129B1B78282B03D1139B01331393F9
:1080A00006E0129B1B78292B02D1139B013B1393F3
:1080B000129B01331293139B002B03D1129B013BA4
:1080C000119306E0129B1B78002B02D0139B002B10
:1080D000DFDC119B002B05D112993348FFF776FDA9
:1080E0000023C0E0099B1093ADE01098FFF760FCFF
:1080F000109006E0109B013310931098FFF758FC86
:108100001090109A119B9A4203D8109B1B782C2B2D
:10811000F0D0109A119B9A4200F29A80109B1B7823
:10812000292B00F0958003222049109811F0FEF8C9
:108130000346002B05D010991D48FFF747FD00238B
:1081400091E02821109811F0C5F90F900F9B002B9A
:1081500003D00F9A119B9A4205D910991548FFF741
:1081600035FD00237FE001230E930F9B01330F9316
:108170002CE00F9B1B78282B1ED10E9B01330E93F6
:1081800021E000BF904B00208C4B0020E49A0300BC
:10819000E89A0300EC9A0300F09A0300049B0300A2
:1081A000109B03001C9B0300209B0300389A0300D4
:1081B0003C9A0300349B03000F9B1B78292B02D1B0
:1081C0000E9B013B0E930F9B01330F930F9A119B54
:1081D0009A4202D80E9B002BCBDC0E9B002B05D0C5
:1081E0000F992348FFF7F2FC00233CE0002305939E
:1081F000019BDB880F2B05D910991E48FFF7E6FC81
:10820000002330E0019BDB881A4613461B01134410
:108210009B000833019A1344063305AA19461098A7
:10822000FFF74EFD034683F00103DBB2002B01D0C4
:10823000002318E0019BDB8801339AB2019BDA80AE
:10824000059B01331093109A119B9A427FF64DAF14
:10825000019BDB88002B05D109990748FFF7B6FC85
:10826000002300E00123184615B05DF804FB00BFB1
:108270003C9B0300509B0300609B030084B00346BB
:108280008DF807300023039321E0144A039B40F24A
:10829000544101FB03F313441B78002B14D00F4A05
:1082A000039B40F2544101FB03F3134405331B7855
:1082B0009DF807209A4207D1039B40F2544202FBEB
:1082C00003F3064A134406E0039B01330393039B25
:1082D000072BDADD0023184604B07047BC280020C5
:1082E00000B585B003468DF807309DF80730184675
:1082F000FFF7C4FF0290029B002B01D0029B32E0EB
:10830000002303932BE01A4A039B40F2544101FBE4
:1083100003F313441B7883F00103DBB2002B1BD063
:10832000134A039B40F2544101FB03F3134401221F
:108330001A700F4A039B40F2544101FB03F31344AC
:1083400005339DF807201A70039B40F2544202FB4C
:1083500003F3074A134406E0039B01330393039B93
:10836000072BD0DD0023184605B05DF804FB00BFE5
:10837000BC28002008B50C4B00221A700A4B0022C2
:108380009A60094B00225A60074B00225A73064B31
:108390005A7B054B1A73054B01221A70044B184681
:1083A00003F082FC00BF08BD944B0020882300200E
:1083B0006823002000B585B003468DF807301B4BBD
:1083C0005B68002B01D100232CE09DF807309AB2A6
:1083D000164B5B68DB889A4201D3002322E0134BE3
:1083E00059689DF8072013461B0113449B0008336E
:1083F0000B4406330393039BDB78002B01D100234E
:1084000010E00A4A039B9360084A9DF807301373F3
:10841000064B00225A73064B01221A70002000F00E
:1084200009F80123184605B05DF804FB944B0020C1
:108430008823002000B585B001902B4B1B7883F07A
:108440000103DBB2002B4AD1274B9B68002B46D09F
:10845000254B9B680393254B1B78002B24D0224B84
:108460005A7B039BDB789A421AD31F4B5B78002B15
:1084700013D01D4B5B68002B0FD01B4B1B7B0133B4
:10848000194A5268D288934207DA174B1B7B013393
:10849000DBB21846FFF78EFF22E0FFF76BFF1FE00D
:1084A000124B00221A701BE00F4B5B7B0133DAB2D8
:1084B0000D4B5A730D4B01221A700D4B00224FF4D5
:1084C000A031184603F098FB0290029B002B07D0C6
:1084D000084A4FF41271029802F074FE00E000BFE7
:1084E00005B05DF804FB00BF944B002088230020FA
:1084F000682300208C9B030000B583B00190019895
:10850000FFF798FF00BF03B05DF804FB00B583B030
:108510000190019B002B03D0019BDB88002B01D134
:1085200000230CE0084B01221A70074B01225A70FD
:10853000054A019B53600020FFF73CFF03461846A5
:1085400003B05DF804FB00BF944B002000B583B07E
:108550000190FFF7C3F900BF03B05DF804FB000012
:1085600000B589B007900691059204930C9B039384
:108570000B9B02930A9B0193049B0093059B069A15
:108580000649079810F03AF90346062B0CBF012361
:108590000023DBB2184609B05DF804FB049C03001D
:1085A00082B003468DF807309DF807300D4AA2FBD4
:1085B0000323DB08DBB25BB21B0158B29DF8072036
:1085C000084BA3FB0213D9080B469B000B445B002E
:1085D000D31ADBB25BB203435BB2DBB2184602B024
:1085E000704700BFCDCCCCCC82B003468DF80730AD
:1085F0009DF807301B09DBB21A46920013445B005A
:10860000DAB29DF8073003F00F03DBB21344DBB29C
:10861000184602B07047000010B586B00E4B1B78AC
:10862000002B15D10D4B01AC0FCB84E80F0001A935
:10863000002300220A480BF083FC0590059B002BC9
:1086400007D107480BF06EFD034B01221A7000E0C2
:1086500000BF06B010BD00BF884B0020189C03006F
:10866000B8A6030000B58BB042F2A02200212C482E
:1086700010F08AFF04AB00221A605A609A6002ABC5
:1086800000221A605A600023099336E06A4604AB60
:108690001146184607F082FA0346002B2DD1009BA5
:1086A0009B884BF20F02934223D1009B5B889B0077
:1086B000B3F58A6F1DD3019B0893089B1B78012B90
:1086C00017D1089B5B781846FFF70AFE0790079BB7
:1086D000002B0ED0079B089A043311464FF48A6290
:1086E000184610F01FFF079B01221A70099B0133E7
:1086F000099304AB184607F0A1FA02AA04AB11468D
:10870000184607F073FB0346002BBFD0099A0549B2
:1087100000200FF04BFA00BF0BB05DF804FB00BF68
:10872000BC280020289C030082B00190019B48F2E5
:10873000096293423AD0019B48F2096293423FD8C2
:10874000019B112B2AD8019B112B39D801A252F879
:1087500023F000BFA9870200C1870200C187020081
:10876000C1870200B9870200C1870200C1870200E9
:10877000C1870200C1870200C1870200C1870200D1
:10878000C1870200C1870200BD870200C1870200C5
:10879000C1870200C1870200B5870200019B48F231
:1087A0000662934204D00BE0074B0AE0074B08E057
:1087B000074B06E0074B04E0074B02E0074B00E0E5
:1087C000074B184602B070475C9C0300689C03008E
:1087D0007C9C0300989C0300A89C0300BC9C0300A5
:1087E000D09C030010B584B00390039B002B00F0D5
:1087F0009E80039B1B781C46039B5B681846FFF713
:1088000093FF0246039B5B68009313462246494947
:1088100000200FF0CBF9039B1B78052B78D801A221
:1088200052F823F03D8802006B8802008D88020018
:10883000AF880200D1880200F1880200039B5B68C8
:10884000002B0CBF01230023DAB23B4B1A703A4BCA
:108850001B78DBB2002B01D0384B00E0384B1A46B6
:10886000384900200FF0A2F953E0374B00221A706C
:10887000039B5B68002B01D1304A00E0334A039B25
:108880009B68334900200FF091F942E02E4B002203
:108890001A70039B5B68002B01D1284A00E02B4A29
:1088A000039B9B682B4900200FF080F931E0264B99
:1088B00000221A70039B5B68002B01D11F4A00E065
:1088C000224A039B9B68244900200FF06FF920E0A7
:1088D0001D4B00221A70039B5B68002B01D1174BC4
:1088E00000E01A4B1A461D4900200FF05FF910E016
:1088F000154B00221A70039B5B68002B01D1184BAB
:1089000000E0124B1A46174900200FF04FF900E023
:1089100000BF039B5B6848F20662934208D1124B8A
:1089200001221A70114900200FF040F900E000BF49
:1089300004B010BDD89C0300A44B0020FC9C030095
:10894000009D0300089D0300A54B0020189D030017
:108950001C9D0300349D03004C9D0300649D030097
:10896000789D0300809D0300A64B0020909D03008E
:1089700000B587B00346029101928DF80F30104B7D
:1089800000221A700F4B00221A609DF80F30002B46
:1089900005D00199029807F0ACF9059004E001991F
:1089A000029807F097F90590059B002B02D1FEF77E
:1089B00019FF0590059B184607B05DF804FB00BF42
:1089C000604B0020644B002000B58FB00190019BEC
:1089D000002B02D148F2046360E0019B5B7803F551
:1089E0000053ADF8323008AB00221A605A609A602A
:1089F00006AB00221A605A6006AB08AABDF8321016
:108A00004BF20F0007F001FA0346002B0CBF0123C5
:108A100000238DF8313003AB0C220021184610F0F2
:108A2000B3FD4BF20F03ADF80C30BDF83230ADF8AA
:108A30000E30019B04934FF48A73059303AA08A98F
:108A40009DF831301846FFF793FF0D900D9B042BD6
:108A500023D1144B01221A70134B00221A7007F015
:108A600093F90B900B9B002B17D101E0FEF778FEDA
:108A70000C4B1B78DBB2002B07D00B4B1B78DBB207
:108A800083F00103DBB2002BF0D103AA08A99DF803
:108A900031301846FFF76CFF0D900D9B18460FB054
:108AA0005DF804FB684B0020694B002000B58BB0DB
:108AB00003468DF8073005AB00221A605A609A60B1
:108AC00003AB00221A605A609DF807309BB203F591
:108AD0000053ADF8263003AB05AABDF826104BF2C3
:108AE0000F0007F092F90346002B02D048F2096309
:108AF0000DE005AB184607F011F90890089B002B14
:108B000004D1054B01221A7007F03EF9089B184664
:108B10000BB05DF804FB00BF684B002008B5104B9C
:108B20001B7883F00103DBB2002B16D10D480BF04C
:108B300021FB0C480BF0A8FA094B00221A704FF0E9
:108B4000A0430222C3F880274FF0A0434FF0A04279
:108B5000D3F88037C2F8243700E000BF08BD00BF5B
:108B6000884B0020B8A6030000B58BB003460491E3
:108B700003928DF81730FFF74FFD039B01330C2B49
:108B800003D9FFF7CBFF002320E09DF817308DF8C5
:108B9000183006AB0133039A0499184610F0C2FC52
:108BA000039BDBB20133DBB2194606AA0023009314
:108BB0000B46512107480BF0ABFD0990FFF7AEFFC4
:108BC000099B002B0CBF01230023DBB218460BB01E
:108BD0005DF804FBB8A6030000B589B00346049114
:108BE00003928DF81730FFF717FD0DF117020123DF
:108BF0000093012351210F480BF08AFD0790079B3A
:108C0000002B03D0FFF78AFF00230FE0039BDBB2AA
:108C1000049A512107480BF0A3FD0790FFF77EFF50
:108C2000079B002B0CBF01230023DBB2184609B0C1
:108C30005DF804FBB8A6030000B587B0039002916D
:108C400001920093019BDBB21846FFF7A9FC034693
:108C500003F07F03DBB28DF81030029BDBB21846C5
:108C6000FFF79EFC034603F07F03DBB28DF8113063
:108C7000039BDBB21846FFF793FC034603F03F0368
:108C8000DBB28DF81230009BDBB21846FFF788FC90
:108C9000034603F03F03DBB28DF8133000238DF859
:108CA0001430089BDBB21846FFF77AFC034603F04A
:108CB0001F03DBB28DF81530099B0E4A82FB0312AD
:108CC0005111DA178A1A642101FB02F29A1AD3B2FF
:108CD0001846FFF765FC03468DF8163004AB0722F3
:108CE00019460420FFF740FF0346184607B05DF819
:108CF00004FB00BF1F85EB5100B587B003900291C4
:108D00000192009304AB072219460420FFF764FF89
:108D1000034683F00103DBB2002B01D0002346E0C1
:108D20009DF8103003F07F03DBB21846FFF75CFCC0
:108D300003461A46019B1A609DF8113003F07F0329
:108D4000DBB21846FFF750FC03461A46029B1A6036
:108D50009DF8123003F03F03DBB21846FFF744FCE6
:108D600003461A46039B1A609DF8133003F03F0335
:108D7000DBB21846FFF738FC03461A46009B1A6020
:108D80009DF8153003F01F03DBB21846FFF72CFCEB
:108D900003461A46089B1A609DF816301846FFF7DE
:108DA00023FC034603F5FA62099B1A600123184667
:108DB00007B05DF804FB84B0039002910192009328
:108DC000039A009B9A4208D0039A009B9A4201DDC5
:108DD00001231DE04FF0FF331AE0029A049B9A42F0
:108DE00008D0029A049B9A4201DD012310E04FF063
:108DF000FF330DE0019A059B9A4208D0019A059B2A
:108E00009A4201DD012303E04FF0FF3300E000232D
:108E1000184604B07047000010B590B01D230F93A2
:108E20000A230E9340F2E3730D9309230C9300235E
:108E30000B9300230A9305AC06AA07A908A803AB65
:108E4000019304AB00932346FFF756FF03468DF8CA
:108E500027309DF8273083F00103DBB2002B0CD1C3
:108E600003980499059A0F9B01930E9B00930D9B09
:108E7000FFF7A1FF0346002B20DA0D9B01930E9B09
:108E800000930F9B0A9A0B990C98FFF7D5FE184A8E
:108E90000C9B1360164A0B9B5360154A0A9B936008
:108EA000134A0F9BD360124A0E9B1361104A0D9B0D
:108EB0005361104900200EF007FB16E0089B0C4A96
:108EC0001360079B0A4A5360069B094A9360059BFF
:108ED000074AD360049B064A1361039B044A53610B
:108EE000054900200EF0F0FA00BF00BF10B010BD21
:108EF0006C4B0020F09D03002C9E03000FB400B5C6
:108F000085B01C4B1B884FF6FF72934204D11A495F
:108F100000200EF0D9FA27E007AB0193019B069AD7
:108F2000A02116480FF0F3FC0390039B002B1ADDE1
:108F3000039B9F2B02DC039B9BB200E0A023ADF8B8
:108F400002300C4B1B880DF102020C490C4804F056
:108F500043FC0290BDF802301A46029B09490020EA
:108F60000EF024FE00E000BF05B05DF804EB04B095
:108F7000704700BF5C230020449E0300BC530020C8
:108F800040230020549E030000B583B003468DF8B3
:108F900007309DF8073019461C20FEF74EFB00BF36
:108FA00003B05DF804FB08B500211C20FEF745FB6B
:108FB00001211C20FEF7E2FA3C20FEF75FFA1C209C
:108FC000FEF7CBFA00211C20FEF737FB00BF08BDDF
:108FD00000B583B00023019318E001211C20FEF7A7
:108FE0002CFB104A019B32F813301846FEF746FA64
:108FF00000211C20FEF721FB0B4A019B32F81330A5
:109000001846FEF73BFA019B01330193019B302B7D
:10901000E3D901211C20FEF710FB00BF03B05DF86F
:1090200004FB00BFE4A6030048A7030000B583B01B
:10903000104B01229A60002301930AE00D4BD3F8F4
:109040001431002B0AD10120FEF718FA019B0133DD
:109050000193019BB3F5FA6FF0DB00E000BF054B15
:109060000022C3F81421034BD3F8143100BF03B01E
:109070005DF804FB0070004008B5FFF7D7FF134B05
:109080004FF0FF32C3F80823104B0022C3F8002131
:109090000E4B0022C3F804210C4B0022C3F8082118
:1090A0000A4BD3F80031094BD3F80431074BD3F8FE
:1090B00008310720FEF7B6F90720FEF791F9034BB8
:1090C0000022C3F8002500BF08BD00BF00700040AB
:1090D00000B589B0019000230793FEF7BFF9002384
:1090E0000293002306930CE002AB1846FEF7BEF98C
:1090F000029B002B0AD10120FEF7C0F9069B013329
:109100000693069BB3F5FA5FEEDB00E000BFFFF7C6
:10911000B3FF744B0222C3F8F025724B0022C3F850
:10912000F425704B0122C3F800256E4B0322C3F8CF
:1091300010256C4B0022C3F814256A4B4FF4A02273
:10914000C3F81825002305933FE0674B00221A80DF
:10915000644B654AC3F82C26624B0122C3F83026C3
:10916000604B0022C3F800215E4B0022C3F80421AB
:109170005C4B01221A6044F620615C48FEF719FB43
:10918000034683F00103DBB2002B40F09380554B84
:109190000022C3F80021534B01225A6044F620619B
:1091A0005348FEF706FB034683F00103DBB2002BB6
:1091B00004D0504900200EF087F980E0494B00228E
:1091C000C3F80421059B01330593059B032BBCDDEC
:1091D0000023049340E0444B00221A80414B424A52
:1091E000C3F82C263F4B0122C3F830263D4B00220A
:1091F000C3F800213B4B0022C3F80421394B012264
:109200001A6044F620613948FEF7D3FA034683F02A
:109210000103DBB2002B4FD1324B0022C3F80021F7
:10922000304B01225A6044F620613148FEF7C1FA02
:10923000034683F00103DBB2002B3FD1294B002210
:10924000C3F80421284B1B881BB21A46079B134402
:109250000793049B01330493049B0B2BBBDD214B31
:1092600001229A6044F620612348FEF7A2FA1D4BC2
:109270000022C3F814211B4B0022C3F80025FEF77F
:10928000F1F8079B1D4A82FB03125210DB17D31A19
:109290000393039B002B01DA00230393039BB3F595
:1092A000805F02DB40F6FF730393019B039A1A6011
:1092B000012313E000BF02E000BF00E000BF094B44
:1092C00001229A6044F620610B48FEF772FA054BC2
:1092D0000022C3F80025FEF7C5F80023184609B0A0
:1092E0005DF804FB00700040844B002000710040DA
:1092F00004710040749E030014710040ABAAAA2AB6
:1093000000B585B00190FFF763FE0620FEF7DFF998
:109310000023029302AB1846FFF7DAFE03468DF8EE
:109320000F300020FFF730FEFFF73DFE9DF80F30B5
:1093300083F00103DBB2002B01D0002303E0029A8B
:10934000019B1A600123184605B05DF804FB00007C
:109350002DE9F04FA3B01D901D9BDA17984691465A
:1093600042464B464FF000004FF00001D90041EA61
:109370005271D00002460B46B2EB080463EB0905BC
:109380004FF000024FF000036B0143EAD463620127
:1093900014461D4614EB080645EB09074FF0000282
:1093A0004FF000033B0143EA1673320116461F4695
:1093B00032463B4640F2FF715118049143F10003DD
:1093C000059340F6FF724FF00003DDE904010FF052
:1093D00059F902460B4613462193219BDA1706934F
:1093E0000792614B1B68DA1708930992DDE906457D
:1093F0002B46DDE90867324602FB03F23B46214675
:1094000001FB03F3134422463146A2FB01210191E3
:109410000092019A1344019341F28833DDE900017F
:109420000246D3180A930B4643F100030B9342F212
:1094300010724FF00003DDE90A010FF023F9024634
:109440000B4613462093209BDA170C930D92DDE90F
:109450000C4522462B46911818915B411993DDE982
:109460001823214612EB010A294643EB010B4FF06A
:1094700000024FF000034FEA8B0343EA9A734FEA6E
:109480008A0292469B4623461AEB03031A932B4605
:109490004BEB03031B934FF000024FF00003DDE999
:1094A0001A6739468B00314643EA917331468A0088
:1094B00010461946034622469B180E932B460A4631
:1094C00042EB03030F93DDE90E120B4605331093B5
:1094D000134643F1000311934FF00A024FF00003CB
:1094E000DDE910010FF0CEF802460B4613461F933C
:1094F0001F9BDA17129313921C4B1B68DA171493F5
:109500001592DDE912452B46DDE91467324602FB70
:1095100003F23B46214601FB03F313442246314646
:10952000A2FB012103910292039A13440393DDE904
:1095300002120B4613F5FA731693134643F1000318
:1095400017934FF47A724FF00003DDE916010FF024
:1095500099F802460B46064B1B6813441E931E9B4C
:10956000184623B0BDE8F08F60230020642300205C
:109570005C4B002000B585B001900091019B1B88D9
:10958000102B02D0112B09D01BE0019B9A880F4BA6
:109590001A800F4900200DF097FF12E00D490020BE
:1095A0000DF092FF094B4FF6FF721A8003210A4813
:1095B00003F0B4FD0390039A084900200EF0F6FA78
:1095C00000BF00BF05B05DF804FB00BF5C230020B6
:1095D000949E0300A89E030088240020CC9E0300D4
:1095E00000B583B00021084807F024F80190019BE2
:1095F000002B05D0054A4FF49961019801F0E2FD76
:1096000000BF03B05DF804FB7C2400208C9B0300AA
:1096100000B585B09DF80830012262F303038DF890
:1096200008309DF80830012262F307138DF80830E6
:1096300002AB092214491846FEF76EF80390039A0C
:10964000124900200EF0B2FA6B4600221A605A60EE
:109650005023ADF80030A023ADF802300023ADF860
:1096600004304FF4C873ADF806306B461846FEF769
:109670004FF80390039A064900200EF097FA00BFB6
:1096800005B05DF804FB00BFE49E0300F09E0300FC
:10969000149F030000B583B003468DF807309DF892
:1096A0000730002B06D0032B0BD1084900200DF00A
:1096B0000BFF07E0064900200DF006FF01F0DAF885
:1096C00000E000BF00BF03B05DF804FB4C9F030047
:1096D0005C9F030070B5D4B027ABAC2200211846C4
:1096E0000FF052FF18AB3C22002118460FF04CFF40
:1096F00002238DF8603000238DF8623006238DF848
:10970000633054ABA3F5967318463C231A460021E8
:109710000FF03AFF27AC18AD0FCD0FC40FCD0FC41B
:109720000FCD0FC495E8070084E8070054ABA3F5FC
:10973000967336AC1D460FCD0FC40FCD0FC40FCDA1
:109740000FC495E8070084E8070001234F93012325
:109750004E9301238DF81831A023499300234A9397
:1097600000238DF8193100238DF81431304B5093BC
:1097700027AB19462F4803F0F5FB5390539A2E4917
:1097800000200EF013FA539B5293529B002B05D0EE
:109790002A4A40F21F51529801F014FD0121254838
:1097A00003F0D3FB264900200DF08EFE07AB1846D0
:1097B000FDF7A2FF539054ABA3F59A731B78C3F344
:1097C0004603DBB21E4654ABA3F59A739B791A4647
:1097D00054ABA3F59A735B79194654ABA3F59A730E
:1097E0001B79184654ABA3F59A73DB781C4654AB2F
:1097F000A3F59A739B781D4654ABA3F59A735B78D7
:109800000593049503940290019100923346539A74
:109810000C4900200EF0CAF9064B93F85430002290
:1098200019460120FDF770FF00BF54B070BD00BFA6
:109830009596020088240020789F03008C9B0300EB
:10984000A09F0300C09F03000C4B00221A800C4B0A
:1098500000221A700B4B00221A700B4B00221A6068
:109860000A4B00221A700A4B00221A70094B002280
:109870001A70094B00221A8000BF7047AA530020BB
:10988000A84B0020AC530020B0530020B45300205C
:10989000B5530020B6530020B853002000B583B064
:1098A00001900F4901980FF09FFD0346002B0FD048
:1098B0000C4901980FF098FD0346002B08D00A4987
:1098C00001980FF091FD0346002B01D0012300E029
:1098D000002303F00103DBB2184603B05DF804FB7C
:1098E000FC9F0300E49A0300E89A030000B589B0E6
:1098F000954B1B88002B01D1002379E1934B1B78FA
:1099000083F00103DBB2002B00F0AE809048FFF73C
:10991000C5FF0346002B00F013818E4B01221A7005
:109920008D498B480FF060FD0290029B002B00F0E8
:1099300099808A4B01221A70029B0233079302E03E
:10994000079B01330793079B1B78002B07D0079BCE
:109950001B7818460FF0A4FE0346002BF0D1079B9E
:109960001B78282B7CD1794B01221A707C4B012269
:109970001A707C4B01221A60079B754A9B1A9BB296
:1099800001339AB2784B1A80774B1B88ADF81A30A6
:109990005AE0BDF81A306E4AD35C8DF807309DF856
:1099A0000730282B05D16F4B1B6801336D4A1360BC
:1099B00045E09DF80730292B41D16A4B1B68013BDC
:1099C000684A1360674B1B68002B38D1BDF81A300A
:1099D00001339BB219465E4800F07CFABDF81A309C
:1099E0000133ADF80430584B1B88BDF804209A426F
:1099F00006D2554B1A88BDF80430D31A9BB200E04A
:109A00000023ADF80230BDF80230002B09D0BDF8BC
:109A100004304F4A1344BDF8022019464C480FF059
:109A200028FC494ABDF802301380474B1B881A4670
:109A3000474B00219954FFF707FF0123D8E0BDF8F9
:109A40001A300133ADF81A303F4B1B88BDF81A208D
:109A50009A429ED33C4B1A88434B1A800023C7E09E
:109A60000023C5E00023C3E03F4B1B88ADF818304E
:109A70005AE0BDF81830364AD35C8DF815309DF8A1
:109A80001530282B05D1374B1B680133354A13603D
:109A900045E09DF81530292B41D1324B1B68013B25
:109AA000304A13602F4B1B68002B38D1BDF818309B
:109AB00001339BB21946264800F00CFABDF8183065
:109AC0000133ADF81230204B1B88BDF812209A42AA
:109AD00006D21D4B1A88BDF81230D31A9BB200E093
:109AE0000023ADF81030BDF81030002B09D0BDF8C0
:109AF0001230174A1344BDF81020194614480FF0CD
:109B0000B8FB114ABDF8103013800F4B1B881A4662
:109B10000F4B00219954FFF797FE012368E0BDF831
:109B200018300133ADF81830074B1B88BDF81820EA
:109B30009A429ED3044B1A880B4B1A80002357E09D
:109B40000023ADF816304CE0AA530020AC5300209F
:109B5000A84B0020B453002008A00300B5530020F8
:109B6000B6530020B0530020B8530020BDF8163083
:109B7000214AD35C0A2B05D0BDF816301E4AD35CAF
:109B80000D2B29D1BDF8163019461B4800F0A2F95B
:109B90001A4B1A88BDF81630D31A9BB2013BADF8A8
:109BA0000E30BDF80E30002B0AD0BDF81630013350
:109BB000114A1344BDF80E2019460F480FF059FB07
:109BC0000E4ABDF80E3013800C4B1B881A460A4B08
:109BD0000021995401230BE0BDF816300133ADF894
:109BE0001630064B1B88BDF816209A42BED30023C0
:109BF000184609B05DF804FBA84B0020AA530020CA
:109C000000B589B003468DF807302D4B93F85430DA
:109C10001846FDF775FD2B4B00221A702A4805F0F7
:109C2000A9FE0790079B002B05D0284A40F213613C
:109C3000079801F0C7FA05F019FF0690069B002B64
:109C400008D0069A224900200DF0B0FF00F012FE65
:109C5000002330E002F07AF805904FF400430493BB
:109C600018E001F013FC0BF08BFC09F0BBFB02F0D9
:109C70006DF803900599039802F05CF80246049B86
:109C8000934207D2134900200DF01EFC00F0F2FDB4
:109C9000002310E00B4B1B78DBB283F00103DBB237
:109CA000002BDED19DF80730002B01D0FEF7DAFC47
:109CB00000F0E0FD0123184609B05DF804FB00BF89
:109CC000882400206A4B0020E58702008C9B03005B
:109CD0000CA0030024A0030000B587B00190019BF5
:109CE0001B78032B58D0032B61DC002B02D0022BF6
:109CF00049D05CE0019B1B690493019B9B8AADF8F2
:109D000016302E4B1B88C3F50063ADF80E30BDF83E
:109D10001620BDF80E309A4203D9BDF80E30ADF8CA
:109D20001630BDF81630002B18D0244B1B881A466D
:109D3000234B1344BDF81620049918460FF0F2FB8C
:109D40001E4B1A88BDF8163013449AB21B4B1A806A
:109D50001A4B1B881A461A4B0021995400BFFFF773
:109D6000C5FD0346002BFAD1144B1B88B3F5FF6FDA
:109D70001FD9FFF769FD134900200DF0A5FB12481C
:109D8000FFF7BCF815E0019B1A89104B1A801049A7
:109D900000200DF099FB0DE00E4900200DF094FB22
:109DA0000A4B4FF6FF721A80FFF74EFD02E000BF2C
:109DB00000E000BF00BF07B05DF804FBAA5300201D
:109DC000A84B002038A003005CA003005C23002007
:109DD00070A0030090A0030000B583B0002300939F
:109DE0000A4B00936B461946094803F04FFC01905B
:109DF000019B002B05D0074A40F26561019801F0F4
:109E0000E1F900BF03B05DF804FB00BFD99C02007C
:109E1000402300208C9B030000B583B01D49002027
:109E20000DF052FB0CF0A0FE0190019A1A4900209F
:109E30000DF0BCFE019B002B26D100230093174997
:109E400000200DF041FB6B46194601200CF0A2FFEB
:109E50000190009B019A124900200DF0A7FE019B82
:109E6000002B13D10F4900200DF02EFB6B46184636
:109E70000DF09AF80190009B019A0B4900200DF01B
:109E800095FE019B002B02E000BF00E000BF03B085
:109E90005DF804FBB4A00300CCA00300ECA0030019
:109EA00004A1030040A1030054A1030000B583B046
:109EB00009F082FA0190019B002B05D0044A40F280
:109EC0008B61019801F07EF900BF03B05DF804FBDF
:109ED0008C9B030070B5ADF6185D0DF61853A3F614
:109EE000045318600A460DF61853A3F606531A8059
:109EF0000AE00DF61853A3F606531A880DF6185308
:109F0000A3F60653013A1A800DF61853A3F606532A
:109F10001B88002B1DD00DF61853A3F606531B8883
:109F2000013B0DF61852A2F60452126813441B7836
:109F30000D2BDED00DF61853A3F606531B88013BFC
:109F40000DF61852A2F60452126813441B780A2B1D
:109F5000CFD00DF61853A3F6065319880DF61853F3
:109F6000A3F60453B44A1868FDF701FC0346002B1E
:109F70007BD00DF61853A3F604533D2118680FF05B
:109F8000A9FACDF8140DDDF8143D002B04D0DDF84E
:109F9000143D0133CDF8143DDDF8143D002B19D0EC
:109FA0000DF54C600DF6C4420DF6C8410DF6B443F4
:109FB00002930DF6B84301930DF6BC43009303469C
:109FC000DDF8140DFEF7CCFA034683F00103DBB293
:109FD000002B04D09948FEF791FF00F030BCDDF86B
:109FE000C83C974A1360DDF8C43C954A5360DDF8DD
:109FF000C03C934A9360DDF8BC3C914AD360DDF8E5
:10A00000B83C8F4A1361DDF8B43C8D4A5361DDF8EA
:10A01000C80CDDF8C41CDDF8C04CDDF8BC5CDDF814
:10A02000B83CDDF8B42C019200932B462246FEF793
:10A0300003FE03468DF8CE3CDDF8C84CDDF8C45C69
:10A04000DDF8C06CDDF8BC3CDDF8B82CDDF8B41CE4
:10A050009DF8CE0C039002910192009333462A465C
:10A0600021467848FEF74AFFE9E30DF61853A3F6B8
:10A07000065319880DF61853A3F60453724A18684C
:10A08000FDF775FB0346002B15D06D4B18686C4B24
:10A090005C686B4B9D686A4BDB68694A126968496A
:10A0A00049690291019200932B4622460146674876
:10A0B000FEF724FFC3E30DF61853A3F606531988E1
:10A0C0000DF61853A3F60453614A1868FDF74FFBC9
:10A0D0000346002B34D00DF6A4440DF6A8420DF62D
:10A0E000AC410DF54B600DF69C4301930DF54A63B1
:10A0F00000932346FEF700FE03468DF8CF3C9DF803
:10A10000CF3C83F00103DBB2002B03D05148FEF7B4
:10A11000F5FE94E3DDF8B00CDDF8AC4CDDF8A85C9E
:10A12000DDF8A43CDDF8A02CDDF89C1C0291019226
:10A1300000932B46224601464448FEF7DFFE7EE3AD
:10A140000DF61853A3F6065319880DF61853A3F607
:10A150000453414A1868FDF70AFB0346002B18D048
:10A160000023CDF8983C0DF698431846FFF7C8F841
:10A17000034683F00103DBB2002B03D03748FEF720
:10A18000BDFE5CE3DDF8983C19463548FEF7B6FEA7
:10A1900055E30DF61853A3F6065319880DF6185318
:10A1A000A3F604532F4A1868FDF7E1FA0346002B83
:10A1B0000FD10DF61853A3F6065319880DF6185350
:10A1C000A3F60453284A1868FDF7D1FA0346002B7A
:10A1D00052D00023CDF8943C0DF694431846FFF777
:10A1E0008FF8034683F00103DBB2002B03D01F4836
:10A1F000FEF784FE23E3DDF8943C1846FFF7A8F849
:10A20000CDF8D00CDDF8D03C194A82FB0312921134
:10A21000DB17D01ADDF8D03C154A82FB03129111EE
:10A22000DA178A1A4FF47A7101FB02F29A1A014680
:10A230001048FEF763FE02E390A103009CA1030017
:10A240006C4B0020ACA10300E0A10300ECA10300D3
:10A250000CA2030018A2030024A2030034A20300EE
:10A2600044A2030058A2030064A2030070A20300EA
:10A27000D34D62107CA203000DF61853A3F60653CB
:10A2800019880DF61853A3F60453C04A1868FDF751
:10A290006EFA0346002B00F0F98000238DF8933C02
:10A2A0000DF61853A3F606531B88CDF8103DDDF8C4
:10A2B000103DB3F5006F03D94FF40063CDF8103DA6
:10A2C0000DF61853A3F604530DF58D60DDF8102D2F
:10A2D00019680FF027F90DF61853A3F50B62DDF896
:10A2E000103D134400221A7006AA0DF693410DF595
:10A2F0008D631846FDF71CFE034683F00103DBB2B5
:10A30000002B44D0A24B1B68002B02D10DF58D63AE
:10A3100001E09F4B1B68CDF8D43C0DF6784300223A
:10A320001A605A609A60DA601A615A610023CDF8A7
:10A330000C3D11E0DDF80C3DDDF8D42C1344197808
:10A340000DF67842DDF80C3D13440A461A70DDF82C
:10A350000C3D0133CDF80C3DDDF80C3D132B07DC33
:10A36000DDF80C3DDDF8D42C13441B78002BE1D133
:10A37000884B1B68002B02D0864B1B6800E0864B85
:10A380000DF6784219468548FEF7B8FD57E29DF86C
:10A39000933C1846FDF7A4FFCDF8E00CDDF8E03C57
:10A3A000002B03D17E48FEF7A9FD48E2DDF8E03C32
:10A3B0000DF61852A2F55062043311464FF48A622A
:10A3C00018460FF0AFF8DDF8E03C01221A70754B2B
:10A3D0001B78DBB283F00103DBB2002B19D0012024
:10A3E000FFF70EFC03468DF8DF3C9DF8DF3C83F061
:10A3F0000103DBB2002B0CD09DF8933C19460DF6FF
:10A400001853A3F55063DB881A466748FEF776FDBC
:10A4100015E2DDF8E03C04331846FEF7D5FACDF836
:10A42000D80CDDF8D83C002B0CD19DF8933C194694
:10A430000DF61853A3F55063DB881A465B48FEF708
:10A440005DFDFCE1DDF8D83C0D2B0ED19DF8933C71
:10A4500019460DF61853A3F55063DB881A46524887
:10A46000FEF74CFD00F006FAE9E19DF8933C194631
:10A470000DF61853A3F55063DB881A46DDF8D83C77
:10A480004B48FEF73BFD00F0F5F9D8E10DF6185307
:10A49000A3F6065319880DF61853A3F60453454A3C
:10A4A0001868FDF764F90346002B00F08B800DF669
:10A4B0001853A3F604533D2118680FF00BF8CDF89C
:10A4C000E80CDDF8E83C002B03D13B48FEF716FD15
:10A4D000B5E10023CDF8743CDDF8E83C01330DF61E
:10A4E000744211461846FDF780FA034683F00103D3
:10A4F000DBB2002B07D1DDF8743C002B03DBDDF869
:10A50000743CFF2B03DD2C48FEF7F8FC97E1DDF8E7
:10A51000743CDBB21846FEF7C9FACDF8E40C002310
:10A52000CDF8083D28E0254ADDF8083D40F25441C9
:10A5300001FB03F313441B78002B18D01F4ADDF8EE
:10A54000083D40F2544101FB03F3134405331A78EC
:10A55000DDF8743CDBB29A4209D1184ADDF8083DB7
:10A5600040F2544101FB03F3134400221A70DDF85A
:10A57000083D0133CDF8083DDDF8083D072BD2DD5D
:10A58000DDF8E41C0E48FEF7B9FC58E1FC9F03001F
:10A59000904B00208C4B002090A2030094A203005B
:10A5A000B8A203006A4B0020CCA20300F8A203006B
:10A5B00020A3030048A3030054A30300BC280020E9
:10A5C00060A303000DF61853A3F6065319880DF681
:10A5D0001853A3F604539B4A1868FDF7C8F80346BE
:10A5E000002B00F0C1800DF61853A3F604533D2153
:10A5F00018680EF06FFFCDF8F40CDDF8F43C002B7A
:10A6000003D19148FEF77AFC19E10023CDF8703CA4
:10A61000DDF8F43C01330DF5476211461846FDF7AD
:10A62000E4F9034683F00103DBB2002B07D1DDF828
:10A63000703C002B03DBDDF8703CFF2B03DD824810
:10A64000FEF75CFCFBE0DDF8703CDBB21846FDF782
:10A6500015FECDF8F00CDDF8F03C002B03D17B4863
:10A66000FEF74CFCEBE0DDF8F03C5B791946DDF8D9
:10A67000F03C9B791A46DDF8F03C5B897448FEF7A4
:10A680003DFC0023CDF8043D65E0DDF8042D1346C4
:10A690001B0113449B000833DDF8F02C13440A33EC
:10A6A000CDF8EC3CDDF8EC3C1B886A4AA2FB0323A6
:10A6B000DB0A9BB21846DDF8EC3C1B88664AA2FB1D
:10A6C00003235B099AB2644BA3FB021359090B469F
:10A6D0001B015B1A9B00D31A9BB21A46DDF8EC3CB7
:10A6E000DB781946DDF8EC3C9B78002B03D0DDF8D5
:10A6F000EC3C9B7800E07F2300930B4601465748D3
:10A70000FEF7FCFB0023CDF8003D17E0DDF8EC2C54
:10A71000DDF8003D9B0013449B881946DDF8EC2CC6
:10A72000DDF8003D9B001344DB881A464C48FEF7D9
:10A73000E5FBDDF8003D0133CDF8003DDDF8EC3CF4
:10A74000DB781A46DDF8003D9342DFDBDDF8043D9F
:10A750000133CDF8043DDDF8F03C5B891A46DDF8A5
:10A76000043D934291DB6AE00DF61853A3F60653BD
:10A7700019880DF61853A3F604533A4A1868FCF7E3
:10A78000F6FF0346002B57D00DF61853A3F60453DB
:10A790003D2118680EF09EFECDF8FC0CDDF8FC3C67
:10A7A000002B03D12848FEF7A9FB48E00023CDF891
:10A7B0006C3CDDF8FC3C01330DF66C42114618464A
:10A7C000FDF713F9034683F00103DBB2002B07D139
:10A7D000DDF86C3C002B03DBDDF86C3CFF2B03DD6C
:10A7E0001948FEF78BFB2AE0DDF86C3CDBB218461B
:10A7F000FDF744FDCDF8F80CDDF8F83C002B03D153
:10A800001248FEF77BFB1AE0DDF8F83C04331846EB
:10A81000FDF77CFE034683F00103DBB2002B03D07F
:10A820001148FEF76BFB0AE0DDF8F83C5B7919464E
:10A830000E48FEF763FB02E00D48FEF75FFB0DF6E6
:10A84000185D70BD70A3030054A303007CA3030034
:10A8500088A30300C5B3A29189888888A4A30300B4
:10A86000CCA30300E8A30300F8A3030008A403009B
:10A870001CA4030000B583B0104B93F854300022A1
:10A8800019460120FCF740FF03210C4802F046FC6A
:10A890000190019A0A4900200DF088F9019B00936C
:10A8A000009B002B05D0074A40F27971009800F018
:10A8B00089FC00BF03B05DF804FB00BF88240020C2
:10A8C000F4A403008C9B030000B595B04FF08053B7
:10A8D0001B6913934FF080535B691293129B139A79
:10A8E00002FB03F311930323109300230F93109A99
:10A8F0000F9B134401330E930E9B139A02FB03F339
:10A90000119AD31A0D930F9B0133139A02FB03F391
:10A91000119AD31A0C930F9B139A02FB03F3119A0B
:10A92000D31A0B930C9B013B119A013A08920B9A94
:10A9300007920F9A06920C9A059204930D9B03932B
:10A940000E9B02930F9B0193109B0093119B139AF4
:10A95000034900200DF02AF900BF15B05DF804FB93
:10A9600098A5030008B500F091FD0AF009FE08F073
:10A9700039FD00BF08BD000000B58DB0FCF7D0FE6A
:10A980004FF4804100200AF085F90B900B9B002BBF
:10A9900005D05F4A4FF4F8610B9800F013FC0AF001
:10A9A00005F908F009FD0A900A9B002B05D0584ACA
:10A9B00040F2C2710A9800F005FC01F0A5F8099078
:10A9C000099B002B05D0524A40F2C371099800F050
:10A9D000F9FB504A2021082000F010FD0890089B48
:10A9E0000793079B002B05D0494A40F2C471079892
:10A9F00000F0E8FBFEF710FA474900200CF064FD78
:10AA0000FFF70AFAFEF7ECFDFEF702FEFFF7E4F9A6
:10AA1000FEF760FE0121414802F097FAFFF746FA7F
:10AA20003F4A01213F4801F0ADF80690069B002BFC
:10AA300005D0374A40F2D771069800F0C3FB3A4B75
:10AA400000224FF48041184601F0D6F80590059B8E
:10AA5000002B05D02E4A40F2DA71059800F0B2FBC7
:10AA6000324A0021324801F08DF80490049B002BFB
:10AA700005D0274A40F2DE71049800F0A3FB2D496F
:10AA800000200CF021FDFFF7F5FE2B4900200CF013
:10AA90001BFDFFF719FF294804F06CFF0390039B8F
:10AAA000002B05D01A4A4FF4FD61039800F08AFB91
:10AAB00004F0DCFF0290029B002B05D0144A40F208
:10AAC000EB71029800F07EFBFFF74CFF1C4B1B78EC
:10AAD000DBB2002BF8D01B4B1B78DBB283F00103F9
:10AAE000DBB2002BF0D0184B1B78DBB2002BEBD085
:10AAF000134B00221A70134B01221A7005F044F90F
:10AB00000190019A114900200DF050F8DCE700BFD8
:10AB10008C9B03005C54002060A603008824002066
:10AB20004D850200C4A6030090230020F984020092
:10AB3000C0A6030078A6030088A60300E5870200EC
:10AB4000A64B0020A54B0020A44B00209CA6030090
:10AB5000BFF34F8F00BF064BDB6803F4E06204498C
:10AB6000044B1343CB60BFF34F8F00BF00BFFDE723
:10AB700000ED00E00400FA0582B0164B1B6801935B
:10AB8000154B1B680093019B082B1FD1009B052BC5
:10AB90001AD801A252F823F0B1AB0200B5AB020003
:10ABA000B9AB0200BDAB0200C1AB0200C5AB0200F5
:10ABB00001230CE001230AE0012308E0012306E061
:10ABC000012304E0012302E0012300E000231846F2
:10ABD00002B07047300100103401001082B0164BF3
:10ABE0001B680193154B1B680093019B082B1FD119
:10ABF000009B052B1AD801A252F823F015AC0200D5
:10AC000019AC02001DAC020021AC020025AC020010
:10AC100029AC020001230CE001230AE0012308E033
:10AC2000012306E0012304E0012302E0012300E008
:10AC30000023184602B070473001001034010010A4
:10AC400082B0164B1B680193154B1B680093019B48
:10AC5000082B1FD1009B052B1AD801A252F823F014
:10AC600079AC02007DAC020081AC020085AC020030
:10AC700089AC02008DAC020001230CE000230AE045
:10AC8000002308E0002306E0002304E0002302E0A4
:10AC9000002300E00023184602B070473001001086
:10ACA0003401001082B0164B1B680193154B1B68D2
:10ACB0000093019B082B1FD1009B052B1AD801A2E2
:10ACC00052F823F0DDAC0200E1AC0200E5AC02007A
:10ACD000E9AC0200EDAC0200F1AC020001230CE093
:10ACE00000230AE0002308E0002306E0002304E03C
:10ACF000002302E0002300E00023184602B0704762
:10AD0000300100103401001082B0164B1B68019313
:10AD1000154B1B680093019B082B1FD1009B052B33
:10AD20001AD801A252F823F041AD020045AD02004D
:10AD300049AD02004DAD020051AD020055AD02001B
:10AD400001230CE000230AE0002308E0002306E0D2
:10AD5000002304E0002302E0002300E00023184663
:10AD600002B07047300100103401001082B0164B61
:10AD70001B680193154B1B680093019B082B1FD187
:10AD8000009B052B1AD801A252F823F0A5AD0200B2
:10AD9000A9AD0200ADAD0200B1AD0200B5AD02003B
:10ADA000B9AD020001230CE000230AE0002308E013
:10ADB000002306E0002304E0002302E0002300E07B
:10ADC0000023184602B07047300100103401001013
:10ADD00082B0164B1B680193154B1B680093019BB7
:10ADE000082B1FD1009B052B1AD801A252F823F083
:10ADF00009AE02000DAE020011AE020015AE020057
:10AE000019AE02001DAE020001230CE001230AE08E
:10AE1000012308E0012306E0012304E0012302E00E
:10AE2000012300E00023184602B0704730010010F3
:10AE30003401001082B0164B1B680193154B1B6840
:10AE40000093019B082B1FD1009B052B1AD801A250
:10AE500052F823F06DAE020071AE020075AE020032
:10AE600079AE02007DAE020081AE020000230CE04C
:10AE700000230AE0002308E0002306E0012304E0A9
:10AE8000012302E0012300E00023184602B07047CE
:10AE9000300100103401001008B5FFF7CBFF034666
:10AEA000002B07D04FF010234FF08042D3F8083228
:10AEB000C2F8583500BF08BD00BF044BD3F80034BA
:10AEC000002BFAD000BF00BF704700BF00E0014078
:10AED00000B583B00190054A019BC2F80435FFF725
:10AEE000EBFF00BF03B05DF804FB00BF00E00140D2
:10AEF000024B034A1A6000BF704700BFB023002016
:10AF00000090D00308B5FFF737FE0346002B0ED0A4
:10AF10004FF080430022C3F80C214FF08043002201
:10AF2000C3F810214FF080430022C3F83825FFF703
:10AF300055FE0346002B76D04FF08053734AD3F86A
:10AF40000434C2F820354FF08053704AD3F80834E7
:10AF5000C2F824354FF080536C4AD3F80C34C2F851
:10AF600028354FF08053694AD3F81034C2F82C3595
:10AF70004FF08053654AD3F81434C2F830354FF09F
:10AF80008053624AD3F81834C2F834354FF08053F6
:10AF90005E4AD3F81C34C2F840354FF080535B4A08
:10AFA000D3F82034C2F844354FF08053574AD3F8D1
:10AFB0002434C2F848354FF08053544AD3F828342B
:10AFC000C2F84C354FF08053504AD3F82C34C2F8B5
:10AFD00050354FF080534D4AD3F83034C2F85435D1
:10AFE0004FF08053494AD3F83434C2F860354FF0FB
:10AFF0008053464AD3F83834C2F864354FF0805352
:10B00000424AD3F83C34C2F868354FF080533F4A87
:10B01000D3F84034C2F86C354FF080533B4AD3F834
:10B020004434C2F87035FFF70BFE0346002B02D004
:10B03000374B384A1A60FFF735FE0346002B03D022
:10B04000354BFB22C3F81825FFF75EFE0346002BA5
:10B050000AD0324B1B6823F00F02314B1B6803F000
:10B060000F032E4913430B60FFF780FE0346002BAE
:10B0700003D02C4B4FF400721A60FFF7A9FE034671
:10B08000002B0DD04FF08043D3F8003403F00103C0
:10B09000002B05D04FF080436FF00102C3F800246D
:10B0A000214BD3F88830204A43F47003C2F888302B
:10B0B000BFF34F8F00BFBFF36F8F00BFFFF7ECFEF2
:10B0C0004FF01023D3F80032002B05DB4FF0102394
:10B0D000D3F80432002B15DA0120FFF7F9FE4FF008
:10B0E00010231222C3F80022FFF7E6FE4FF01023D0
:10B0F0001222C3F80422FFF7DFFE0020FFF7E8FE6C
:10B10000FFF726FDFFF7F4FE00BF08BD00C00040BA
:10B110008C5600404881030000F00040E40E0040DF
:10B12000580200104096024000ED00E086B0039007
:10B130000291019201238DF817309DF81730204AB3
:10B14000039B13601E4A029B53601D4A019B936040
:10B15000039B44F20102934212D0039B44F2020289
:10B16000934220D1019B164AD360154BDB681B68C4
:10B17000134A9361124BDB685B68114AD36112E09A
:10B18000019B0F4A13610E4B1B699B680C4A53616C
:10B190000B4B1B691B680A4A9361094B1B695B686F
:10B1A000074AD36100BF72B600BF00BF9DF81730D9
:10B1B000DBB2002BFAD162B600BF00BF06B0704709
:10B1C0006C56002000B583B002900091019244F2C9
:10B1D000010071466A4600F003F803B000BD00BFED
:10B1E00030B58BB007900691059272B600BF0AF099
:10B1F00061FC0AF0C5F90346002BFAD1079B44F223
:10B200000202934237D0079B44F2020293427DD858
:10B21000079B44F20102934243D0079B44F2010290
:10B22000934273D8079B012B05D0079B41F2010283
:10B23000934210D06AE04A4B5B88002B77D0494A92
:10B24000494BD31ADB081B0443F001034749184656
:10B250000AF024F96BE0424B5B88002B69D0414A2D
:10B26000414BD31ADB081B0443F001034049184645
:10B270000AF014F95DE0059B0993394B5B88002BBC
:10B2800059D0384A384BD31ADB081B0443F001006D
:10B29000099B5B681A46099B1B6836490AF01DF931
:10B2A00049E0059B08932E4B5B88002B1ED02D4A4E
:10B2B0002D4BD31ADB081B0443F00104089B9D6847
:10B2C000089B9B68184608F0DBFA03461846089B63
:10B2D0005B681946089B1B68069A029201930091CD
:10B2E00003462A46244920460AF021F91C4B5B8874
:10B2F000002B22D01B4A1C4BD31ADB081B0443F043
:10B3000001031E4918460AF0C9F816E0144B5B8881
:10B31000002B14D0134A144BD31ADB081B0443F040
:10B320000103069A164918460AF0C6F807E000BF5E
:10B3300006E000BF04E000BF02E000BF00E000BF85
:10B34000104B1B6803F00103002B00D000BE059AD0
:10B3500006990798FFF7EAFE00BF0BB030BD00BFAB
:10B3600098220020F0970300E0970300A8A70300AD
:10B37000C8A70300ECA7030008A8030030A8030037
:10B3800044A80300F0ED00E082B00190019B03F0BF
:10B390000303002B0CBF01230023DBB2184602B0CD
:10B3A0007047000082B003468DF807309DF80730E3
:10B3B0009AB2064B1B889A4204D29DF8073001339B
:10B3C000DBB200E00023184602B070479856002018
:10B3D00082B0084B1B788DF80730074B1B78DBB227
:10B3E0009DF807209A420CBF01230023DBB21846C8
:10B3F00002B07047945600209556002000B585B0E5
:10B4000003460092ADF806300B46ADF80430BDF8A7
:10B41000043001339BB2DB00ADF80E300098FFF72B
:10B42000B3FF034683F00103DBB2002B01D00723F7
:10B4300017E00E4A009B1360BDF80E30009A1344CB
:10B440000B4A13600B4B00221A700B4B00221A7030
:10B450000A4ABDF806301380094ABDF8043013804B
:10B460000023184605B05DF804FB00BF8C56002091
:10B4700090560020955600209456002096560020A5
:10B4800098560020002318467047000000B585B08C
:10B490002FE0204B1B78DBB2ADF80E301E4B1B6843
:10B4A000BDF80E201D49098801FB02F213440293E6
:10B4B0001B4B1A68BDF80E30DB0013449B88ADF8B7
:10B4C0000630174B1A68BDF80E30DB0013441B68BA
:10B4D0000093BDF80620009B1146029898470D4B3B
:10B4E0001B78DBB21846FFF75DFF03461A46094B8F
:10B4F0001A70FFF7C7FF034683F00103DBB2002B8E
:10B5000004D0FFF765FF0346002BC2D000BF05B093
:10B510005DF804FB945600209056002096560020BB
:10B520008C5600202DE9F04383B0144802F0CBFD87
:10B53000034600221C461546114BD3E9002314EBA9
:10B54000020845EB0309CDE900890E4BD3E900233E
:10B55000DDE90001904271EB030307D2DDE900232E
:10B5600012F1807643F10007CDE90067DDE90023A1
:10B570001046194603B0BDE8F08300BFB423002095
:10B58000A8560020B056002088B001900091019B81
:10B590000793009B0693079BD3E90223CDE904237D
:10B5A000069BD3E90223CDE90223DDE90423DDE98B
:10B5B0000201904271EB03032CBF01230023DBB295
:10B5C000184608B070470000F0B585B00190019BA7
:10B5D0005B69002B03D14349A52004F02CFC002318
:10B5E0008DF80F30404B1B78002B75D0019B002B42
:10B5F00072D0FFF797FF019BD3E90223904271EBD2
:10B60000030358D300238DF80D300DF10D031846B8
:10B6100000F01AFC019B1B69002B06D101994FF029
:10B62000FF324FF0FF33C1E902239DF80D30184679
:10B6300000F020FC019B5B69019A926910469847D3
:10B6400000238DF80C3003AB184600F0FDFB019B86
:10B650001B69002B1AD0019BD3E90223B3F1FF3FF2
:10B6600008BFB2F1FF3F11D0019BD3E9022301993A
:10B67000096900200C460546161943EB0507019B96
:10B68000C3E9026701238DF80E3002E000238DF834
:10B690000E309DF80C30184600F0ECFB9DF80E3093
:10B6A000002B19D0019B1946104808F043F80123DC
:10B6B0008DF80F3010E0019BD3E90223B3F1FF3F77
:10B6C00008BFB2F1FF3F07D0019B1946074808F0B9
:10B6D00031F801238DF80F309DF80F30184605B072
:10B6E000F0BD00BF7CA80300A0560020D0A8030036
:10B6F00030B58BB0019000910D230793009B002281
:10B700001A70019BD3E90223CDE90423FFF70AFF56
:10B71000DDE90423141A63EB0105CDE90845DDE9F1
:10B720000823012A73F1000318DB089BB3F5350FDA
:10B7300005D300F00BFB0246144B134400E0049BBE
:10B7400003934FF49603039A0021114802F0AEFBD5
:10B750000790079B002B05D1012314E000210C4822
:10B7600002F07CFC079B0D2B07D10198FFF72CFF03
:10B7700003461A46009B1A7004E006494FF486708F
:10B7800004F059FB002318460BB030BDFFFFB40096
:10B79000B42300207CA8030000B583B0044808F05F
:10B7A00003F80190019B184603B05DF804FB00BF4D
:10B7B000D0A8030000B583B0044808F017F8019042
:10B7C000019B184603B05DF804FB00BFD0A803003E
:10B7D00000B583B0FFF7E0FF0190019B002B06D07E
:10B7E00001994FF0FF324FF0FF33C1E90223019B73
:10B7F000002BEFD100BF00BF03B05DF804FB0000D9
:10B80000054BD3E9002312F1807043F10001024B94
:10B81000C3E9000100BF7047A856002010B582B0F0
:10B820000190124B1B68002B1DD0019802F04BFCBD
:10B8300004460021019802F037FC034619462046D1
:10B8400000F078FA0346B3F5960F04D3084940F2A6
:10B85000411004F0F0FA054B1B681846FFF7B4FEE0
:10B86000024B00221A6000BF02B010BD9C5600209F
:10B870007CA8030000B583B00190FFF753FE024699
:10B880000B460349C1E9002300BF03B05DF804FB88
:10B89000B056002000B585B00190FFF78BFF0390F4
:10B8A00000238DF80B30039B002B58D0039BD3E96A
:10B8B0000223B3F1FF3F08BFB2F1FF3F02D1FFF710
:10B8C0006BFF54E02E4B1B68002B03D101238DF836
:10B8D0000B301DE0039BD3E90201294B1B68D3E920
:10B8E0000223904271EB030312D201238DF80B3037
:10B8F000234B1B68D3E90223B3F1FF3F08BFB2F12A
:10B90000FF3F05D01E4B1B6819461E4807F012FF6B
:10B910009DF80B30002B2BD0FFF73EFF03900DF16D
:10B920000A0319460398FFF7E3FE0346002B12D0E3
:10B93000134B1B68002B02D1019802F0C3F9104A87
:10B94000039B13609DF80A3083F00103DBB2002BE8
:10B95000A3D000BF0FE00A4B00221A609DE7084BFE
:10B960001B68002B06D1019802F0C2F902E094E7AF
:10B9700000BF00E000BF00BF05B05DF804FB00BFE2
:10B980009C560020D0A8030000B587B001902B4A38
:10B9900003AB1946104604F071FB059045E0059B8A
:10B9A0001B78022B2BD0022B2FDC002B02D0012B7B
:10B9B00011D02AE0059B5B68D3E90223B3F1FF3F76
:10B9C00008BFB2F1FF3F22D0059B5B6819461C48B7
:10B9D00007F0B0FE1BE0059B5A681A4B1B689A42A1
:10B9E00003D1184B00221A6012E0059B5B681946D0
:10B9F000134807F00FFF03468DF8133008E0FFF7F8
:10BA0000E7FE114B01221A7002E000BF00E000BF08
:10BA10000A4A03AB1946104604F049FB074A03AB38
:10BA20001946104604F02AFB0590059B002BB6D161
:10BA300000BF00BF07B05DF804FB00BFBC230020BF
:10BA4000D0A803009C560020A056002000B583B06B
:10BA50000190019802F0F5FA0346002B01D0FFF7A0
:10BA6000CFFE0021019802F00AFB0346002B02D012
:10BA70000198FFF7D3FE0121019802F000FB034675
:10BA8000002B02D00198FFF7F5FE0198FFF77CFF2D
:10BA90000198FFF7FFFE00BF03B05DF804FB000054
:10BAA00008B5024802F01CFB00BF08BDB42300200B
:10BAB00000B585B0034600918DF80730114A02ABFE
:10BAC0001946104604F0ADFA0390039B002B13D0E7
:10BAD000039B9DF807201A70039B009A5A60094A3D
:10BAE00002AB1946104604F0B5FA0346002B01D00C
:10BAF000FFF7D6FF002300E00423184605B05DF8E9
:10BB000004FB00BFBC23002000B583B0164B1B68AC
:10BB10000093164808235822154904F03BFA019077
:10BB2000019B002B01D0019B19E06B46114A19467D
:10BB3000114802F03FF80190019B002B01D0019BBE
:10BB40000DE001210C4802F06BFA01230B4A0121A0
:10BB5000094802F0E3F80A4B01221A70019B1846CB
:10BB600003B05DF804FB00BFCCA80300BC23002099
:10BB7000B85600204DBA0200B4230020FFFF7F001A
:10BB8000A056002000B587B003900B4601928DF8B7
:10BB90000B30039B002B04D1164940F25A2004F0CD
:10BBA0004AF9019B002B04D1124940F25B2004F0BA
:10BBB00042F9019B002B01D1072317E0039B1B686F
:10BBC000059305994FF0FF324FF0FF33C1E902238F
:10BBD000059B019A5A619DF80B30012B0CBF012384
:10BBE0000023DBB21A46059B1A610023184607B0F2
:10BBF0005DF804FB7CA80300F0B589B003900291C6
:10BC00000192039B002B04D1264940F26B2004F0E3
:10BC100012F9039B069300238DF817300DF11703DB
:10BC2000184600F011F9069BD3E90223B3F1FF3F58
:10BC300008BFB2F1FF3F11D1FFF774FC02460B467B
:10BC4000029900200C460546161943EB0507069B92
:10BC5000C3E9026701238DF81F3002E000238DF84D
:10BC60001F309DF81730184600F004F99DF81F307A
:10BC700083F00103DBB2002B01D000230EE0069B12
:10BC8000019A9A61069B1B69002B02D0069B029ABF
:10BC90001A6106990020FFF70BFF0346184609B00A
:10BCA000F0BD00BF7CA8030000B587B00190019BE8
:10BCB000002B04D11E4940F2932004F0BCF8019BF4
:10BCC000049300238DF80F300DF10F03184600F098
:10BCD000BBF8049BD3E90223B3F1FF3F08BFB2F1E5
:10BCE000FF3F03D100238DF8173009E004994FF08E
:10BCF000FF324FF0FF33C1E9022301238DF81730E3
:10BD00009DF80F30184600F0B5F89DF8173083F015
:10BD10000103DBB2002B01D0002304E004990120D1
:10BD2000FFF7C6FE0346184607B05DF804FB00BFE8
:10BD30007CA8030082B001900091019A009BD31A65
:10BD400023F07F43184602B07047000008B503484F
:10BD500002F0B9F90346184608BD00BFB42300201D
:10BD600082B0EFF310830093009B019372B600BF83
:10BD7000019B184602B0704762B600BF00BF704713
:10BD800000B585B00190FFF7EBFF0390164B9B6861
:10BD9000002B1BD1144B01229A60144BD3F8802046
:10BDA000134B1340104A1360104B114AC3F8802004
:10BDB0000E4BD3F884300C4A53600C4B4FF0FF32DB
:10BDC000C3F88420019B00221A7002E0019B01222B
:10BDD0001A70039B002B01D1FFF7CEFF00231846FA
:10BDE00005B05DF804FB00BF1457002000E100E03F
:10BDF000FC06FFBD00B585B003468DF80730104B3B
:10BE00009B68002B16D09DF80730002B12D1FFF74E
:10BE1000A7FF03900B4A0A4B1B681360094A084BA3
:10BE20005B685360064B00229A60039B002B01D194
:10BE3000FFF7A2FF0023184605B05DF804FB00BF22
:10BE40001457002000E100E000B583B0019000F03D
:10BE50002BF80346012B03D00549432003F0EBFFE9
:10BE60000198FFF78DFF00BF03B05DF804FB00BF32
:10BE7000DCA8030000B583B003468DF8073000F05E
:10BE800013F80346012B03D00649512003F0D3FFDA
:10BE90009DF807301846FFF7ADFF00BF03B05DF80F
:10BEA00004FB00BFDCA8030084B0EFF3058301931B
:10BEB000019BC3F308030393039B002B0DD1EFF306
:10BEC00014830093009B0293029B03F00103002B59
:10BED0000CBF01230023DBB200E00123184604B0AD
:10BEE000704782B003460091ADF80630BDF80630C9
:10BEF000DAB2009B1A70BDF806301B0A9AB2009B9A
:10BF00000133D2B21A700223184602B070476DDFB7
:10BF1000704700BF184679DF704700BF18467DDFC5
:10BF2000704700BF184664DF704700BF184600B571
:10BF300089B0039002911346ADF80630029B1B882E
:10BF400003F10902BDF806309A4201D90C2353E0EF
:10BF500004AB1846FFF7DBFF0790079B0693069B91
:10BF6000002B01D0069B47E0029B1B881A46039BCF
:10BF7000134408221A70029B1B8801339AB2029B59
:10BF80001A80029B1B881A46039B13441B221A70BB
:10BF9000029B1B8801339AB2029B1A80029B1B886A
:10BFA0001A46039B981804AB0133062219460DF07C
:10BFB000B9FA029B1B8806339AB2029B1A809DF83D
:10BFC000103023F00103DBB2002B07D1029B1B884A
:10BFD0001A46039B134400221A7006E0029B1B883A
:10BFE0001A46039B134401221A70029B1B880133DB
:10BFF0009AB2029B1A800023184609B05DF804FB30
:10C0000000B589B0039002910192ADF80230039B14
:10C010001B78012B05D1039B5B78002B01D10723F3
:10C0200091E0019B1B889A1CBDF802309A420ED801
:10C03000039B1B78012B0CD1019B1B881A46039B89
:10C040005B7813449A1CBDF802309A4201D90C2344
:10C0500079E0019B1B88BDF80220D31A9BB2023BFA
:10C06000ADF81C30BDF81C30ADF81230019B1B88B8
:10C070000233029A13440DF1120211461846FFF7DB
:10C080004EFF0690069B0593059B002B01D0059B58
:10C0900059E0039B1B78022B06D0039B5B781A4662
:10C0A000BDF812309A4209D3BDF81230BDF81C20F9
:10C0B0009A4203D309238DF81F3016E008238DF828
:10C0C0001F30039B1B78012B0BD1039B5B781A4617
:10C0D000BDF81C30934204D3039B5B78ADF812305B
:10C0E00003E0BDF81C30ADF81230BDF81230FE2B65
:10C0F00001D90C2327E0BDF81230DAB2019B1B886E
:10C100001946029B0B440132D2B21A70019B1B8864
:10C1100001339AB2019B1A80019B1B881A46029B2D
:10C1200013449DF81F201A70019B1B8801339AB29B
:10C13000019B1A80019B1A88BDF8123013449AB2F1
:10C14000019B1A800023184609B05DF804FB00B576
:10C1500089B0039002911346ADF80630029B1B880C
:10C160001A1DBDF806309A4201D90C233AE00DF1B0
:10C1700016031846FFF7CFFE0790079B0693069B12
:10C18000002B01D0069B2DE0029B1B881A46039BC7
:10C19000134403221A70029B1B8801339AB2029B3C
:10C1A0001A80029B1B881A46039B134419221A709B
:10C1B000029B1B8801339AB2029B1A80BDF816209D
:10C1C000029B1B881946039B0B4419461046FFF738
:10C1D00088FE03461A46029B1B8813449AB2029BB0
:10C1E0001A800023184609B05DF804FB84B0029160
:10C1F00001921A4603468DF80F301346ADF80C3005
:10C20000019B1B88DA1CBDF80C309A4201D90C2323
:10C2100028E0019B1B881A46029B134402221A70D5
:10C22000019B1B8801339AB2019B1A80019B1B88DA
:10C230001A46029B134401221A70019B1B8801338A
:10C240009AB2019B1A80019B1B881A46029B1344D9
:10C250009DF80F201A70019B1B8801339AB2019B35
:10C260001A800023184604B0704784B002910192EE
:10C270001A4603468DF80F301346ADF80C30019B7B
:10C280001B88DA1CBDF80C309A4201D90C2328E037
:10C29000019B1B881A46029B134402221A70019BC1
:10C2A0001B8801339AB2019B1A80019B1B881A4696
:10C2B000029B13440A221A70019B1B8801339AB215
:10C2C000019B1A80019B1B881A46029B13449DF810
:10C2D0000F201A70019B1B8801339AB2019B1A80B0
:10C2E0000023184604B0704700B58FB00390019347
:10C2F0000B468DF80B3013468DF80A3000238DF86D
:10C300003330109B1B88ADF8303000230D9370E064
:10C31000039B5A680D9B9B001A4405AB106818607C
:10C320000DF11B0105AB00221846FFF7FCFD0A903A
:10C330000A9B0993099B002B01D0099B7BE09DF888
:10C340001B309DF80A209A4250D19DF83330002BC3
:10C3500001D0002300E002238DF82330109B1B88BE
:10C360001A469DF81B301A449DF823301A44BDF834
:10C3700044309A4201DD0C235DE09DF8333083F0B8
:10C380000103DBB2002B16D0109B1B8801339AB23D
:10C39000109B1A80109B1B881A46019B13449DF822
:10C3A0000B201A70109B1B8801339AB2109B1A80C5
:10C3B00001238DF83330109B1B881A46019B1A44C9
:10C3C0000DF11B0105AB1846FFF7ADFD0A900A9B66
:10C3D0000793079B002B01D0079B2CE0109B1B8829
:10C3E0009DF81B2013449AB2109B1A800D9B0133B9
:10C3F0000D93039B1B881A460D9B934288DB9DF887
:10C400003330002B16D0109B1A88BDF83030D31A69
:10C410009BB2013BADF82E30BDF82E30FF2B01D979
:10C420000C2308E0BDF83030019A1344BDF82E20EB
:10C43000D2B21A70002318460FB05DF804FB00B5A5
:10C440008BB0059003930B468DF8133013468DF88F
:10C4500012309DF81310BDF8343001930C9B0093FB
:10C46000039B02220598FFF73FFF0990099B089361
:10C47000089B002B01D0089B14E09DF81210BDF81A
:10C48000343001930C9B0093039B10220598FFF717
:10C490002BFF0990099B0793079B002B01D0079B5B
:10C4A00000E0002318460BB05DF804FB82B0019059
:10C4B000019B1B88052B0AD9019B1B88B3F5486F8C
:10C4C00007D9019B1B884FF6FF72934201D00723C7
:10C4D00025E0019B5B88052B0AD9019B5B88B3F59E
:10C4E000486F07D9019B5B884FF6FF72934201D0DA
:10C4F000072314E0019B1B884FF6FF7293420DD077
:10C50000019B5B884FF6FF72934207D0019B1A880C
:10C51000019B5B889A4201D9072300E0002318465B
:10C5200002B0704700B587B0039002910192ADF858
:10C530000230019B1B889A1DBDF802309A4201D936
:10C540000C234BE00398FFF7B1FF0590059B049384
:10C55000049B002B01D0049B40E0019B1B881A46E2
:10C56000029B134405221A70019B1B8801339AB267
:10C57000019B1A80019B1B881A46029B13441222BE
:10C580001A70019B1B8801339AB2019B1A80039B8E
:10C590001A88019B1B881946029B0B4419461046BA
:10C5A000FFF79FFC03461A46019B1B8813449AB26F
:10C5B000019B1A80039B5A88019B1B881946029B8A
:10C5C0000B4419461046FFF78CFC03461A46019BA4
:10C5D0001B8813449AB2019B1A800023184607B0A7
:10C5E0005DF804FB00B587B0039002910192ADF8AD
:10C5F0000230039B9B8802330593019B1B881A46DC
:10C60000059B13449A1CBDF802309A4201D90C23B1
:10C6100053E0059BFE2B01D90C234EE0059BDAB2BB
:10C62000019B1B881946029B0B440132D2B21A703F
:10C63000019B1B8801339AB2019B1A80019B1B88C6
:10C640001A46029B1344FF221A70019B1B88013378
:10C650009AB2019B1A80039B1A88019B1B8819467A
:10C66000029B0B4419461046FFF73BFC03461A4653
:10C67000019B1B8813449AB2019B1A80039B9B88E1
:10C68000002B19D0039B9B68002B01D1072314E0DA
:10C69000019B1B881A46029B9818039B9968039B71
:10C6A0009B881A460CF03EFF019B1A88039B9B88CF
:10C6B00013449AB2019B1A800023184607B05DF814
:10C6C00004FB00B589B0039002910192ADF80230ED
:10C6D000039B9B6A002B01D1072371E000238DF897
:10C6E0001F3065E0039B996A9DF81F2013465B008D
:10C6F00013449B000B440693069B9B8802330593CF
:10C70000059BFE2B01D90C235AE0059BDAB2019B55
:10C710001B881946029B0B440132D2B21A70019B4E
:10C720001B8801339AB2019B1A80019B1B881A4611
:10C73000029B134416221A70019B1B8801339AB284
:10C74000019B1A80069B1A88019B1B881946029B35
:10C750000B4419461046FFF7C4FB03461A46019BDB
:10C760001B8813449AB2019B1A80069B9B88002B5E
:10C7700019D0069B9B68002B01D1072320E0019B69
:10C780001B881A46029B9818069B9968069B9B88F3
:10C790001A460CF0C7FE019B1A88069B9B8813441F
:10C7A0009AB2019B1A809DF81F3001338DF81F301B
:10C7B000039B93F82C309DF81F209A4292D30023BC
:10C7C000184609B05DF804FB00B595B005900491DA
:10C7D000039200231393039B1B88ADF84A30039BFD
:10C7E00000221A80059B93F82D30002B0ED0BDF847
:10C7F0004A301A4603990498FFF799FB1390139B4C
:10C800001193119B002B01D0119BD8E0059B9B78C5
:10C81000002B0ED0BDF84A301A4603990498FFF752
:10C8200096FC1390139B1093109B002B01D0109B30
:10C83000C5E0059BDB78002B10D0059BDB7858B258
:10C84000BDF84A30039A0499FFF7D0FC1390139B6C
:10C850000F930F9B002B01D00F9BB0E0059B5B68F3
:10C86000002B11D0059B5B6893F90000BDF84A309E
:10C87000039A0499FFF7F9FC1390139B0E930E9BF8
:10C88000002B01D00E9B9AE0059B1B89002B14D036
:10C89000059B03F10800BDF84A300193039B009308
:10C8A000049B06220221FFF7CAFD1390139B0D93F0
:10C8B0000D9B002B01D00D9B81E0059B1B8A002B5B
:10C8C00014D0059B03F11000BDF84A300193039B7F
:10C8D0000093049B07220321FFF7B1FD1390139BE4
:10C8E0000C930C9B002B01D00C9B68E0059B1B8BD1
:10C8F000002B14D0059B03F11800BDF84A300193BA
:10C90000039B0093049B15221421FFF798FD1390BD
:10C91000139B0B930B9B002B01D00B9B4FE0059BB4
:10C920001B6A002B0FD0059B186ABDF84A30039A8A
:10C930000499FFF7F7FD1390139B0A930A9B002BB2
:10C9400001D00A9B3BE0059B5B6A002B0FD0059B47
:10C95000586ABDF84A30039A0499FFF743FE1390D2
:10C96000139B0993099B002B01D0099B27E0059B92
:10C9700093F82C30002B0ED0BDF84A30039A04995E
:10C980000598FFF79EFE1390139B0893089B002BBE
:10C9900001D0089B13E0059B1B78002B0ED0BDF83F
:10C9A0004A30039A04990598FFF72AFB1390139BCA
:10C9B0000793079B002B01D0079B00E0139B1846B1
:10C9C00015B05DF804FB86B0039001921A460B4641
:10C9D000ADF80A3013468DF80930039B002B02D0C6
:10C9E000019B002B01D100235BE00023ADF8163042
:10C9F0000CE0BDF81630039A13441B781A46BDF8B4
:10CA0000163013449BB20133ADF81630BDF8163022
:10CA10005A1CBDF80A309A420FDA019B1B88BDF8F8
:10CA200016209A42E5D3BDF816300133039A134419
:10CA30001B789DF809209A42DBD1BDF81620BDF87D
:10CA40000A309A4201D300232BE0BDF8163002339E
:10CA5000ADF81430BDF81630039A13441B78002B40
:10CA600007D0BDF81630039A13441B78013B9BB2E4
:10CA700000E00023ADF81230BDF81230002B08D0D2
:10CA8000BDF81420BDF812301A44BDF80A309A429D
:10CA900001DD002305E0019BBDF814201A80BDF8DC
:10CAA0001230184606B0704700B585B001900B46AD
:10CAB000ADF8023013468DF801300023ADF80C308C
:10CAC0009DF8013003AABDF802100198FFF77BFF23
:10CAD0000346ADF80E30BDF80E30002B01D1002317
